{
    "_format": "hh-sol-artifact-1",
    "contractName": "CrowdfundingCampaign",
    "sourceName": "contracts/CrowdfundingCampaign.sol",
    "abi": [
        {
            "anonymous": false,
            "inputs": [
                {
                    "indexed": true,
                    "internalType": "uint256",
                    "name": "campaignId",
                    "type": "uint256"
                },
                {
                    "indexed": false,
                    "internalType": "address",
                    "name": "creator",
                    "type": "address"
                },
                {
                    "indexed": false,
                    "internalType": "uint256",
                    "name": "goal",
                    "type": "uint256"
                },
                {
                    "indexed": false,
                    "internalType": "uint256",
                    "name": "deadline",
                    "type": "uint256"
                }
            ],
            "name": "CampaignCreated",
            "type": "event"
        },
        {
            "anonymous": false,
            "inputs": [
                {
                    "indexed": true,
                    "internalType": "uint256",
                    "name": "campaignId",
                    "type": "uint256"
                },
                {
                    "indexed": false,
                    "internalType": "address",
                    "name": "contributor",
                    "type": "address"
                },
                {
                    "indexed": false,
                    "internalType": "uint256",
                    "name": "amount",
                    "type": "uint256"
                }
            ],
            "name": "ContributionCanceled",
            "type": "event"
        },
        {
            "anonymous": false,
            "inputs": [
                {
                    "indexed": true,
                    "internalType": "uint256",
                    "name": "campaignId",
                    "type": "uint256"
                },
                {
                    "indexed": false,
                    "internalType": "address",
                    "name": "contributor",
                    "type": "address"
                },
                {
                    "indexed": false,
                    "internalType": "uint256",
                    "name": "amount",
                    "type": "uint256"
                }
            ],
            "name": "ContributionMade",
            "type": "event"
        },
        {
            "anonymous": false,
            "inputs": [
                {
                    "indexed": true,
                    "internalType": "uint256",
                    "name": "campaignId",
                    "type": "uint256"
                },
                {
                    "indexed": false,
                    "internalType": "address",
                    "name": "creator",
                    "type": "address"
                },
                {
                    "indexed": false,
                    "internalType": "uint256",
                    "name": "amount",
                    "type": "uint256"
                }
            ],
            "name": "FundsWithdrawn",
            "type": "event"
        },
        {
            "anonymous": false,
            "inputs": [
                {
                    "indexed": true,
                    "internalType": "uint256",
                    "name": "campaignId",
                    "type": "uint256"
                },
                {
                    "indexed": false,
                    "internalType": "address",
                    "name": "contributor",
                    "type": "address"
                },
                {
                    "indexed": false,
                    "internalType": "uint256",
                    "name": "amount",
                    "type": "uint256"
                }
            ],
            "name": "RefundIssued",
            "type": "event"
        },
        {
            "inputs": [],
            "name": "campaignCount",
            "outputs": [
                {
                    "internalType": "uint256",
                    "name": "",
                    "type": "uint256"
                }
            ],
            "stateMutability": "view",
            "type": "function"
        },
        {
            "inputs": [
                {
                    "internalType": "uint256",
                    "name": "",
                    "type": "uint256"
                }
            ],
            "name": "campaigns",
            "outputs": [
                {
                    "internalType": "address",
                    "name": "creator",
                    "type": "address"
                },
                {
                    "internalType": "uint256",
                    "name": "goal",
                    "type": "uint256"
                },
                {
                    "internalType": "uint256",
                    "name": "deadline",
                    "type": "uint256"
                },
                {
                    "internalType": "uint256",
                    "name": "totalFunds",
                    "type": "uint256"
                },
                {
                    "internalType": "bool",
                    "name": "withdrawn",
                    "type": "bool"
                }
            ],
            "stateMutability": "view",
            "type": "function"
        },
        {
            "inputs": [
                {
                    "internalType": "uint256",
                    "name": "_campaignId",
                    "type": "uint256"
                }
            ],
            "name": "cancelContribution",
            "outputs": [],
            "stateMutability": "nonpayable",
            "type": "function"
        },
        {
            "inputs": [
                {
                    "internalType": "uint256",
                    "name": "_campaignId",
                    "type": "uint256"
                }
            ],
            "name": "contribute",
            "outputs": [],
            "stateMutability": "payable",
            "type": "function"
        },
        {
            "inputs": [
                {
                    "internalType": "uint256",
                    "name": "_goal",
                    "type": "uint256"
                },
                {
                    "internalType": "uint256",
                    "name": "_duration",
                    "type": "uint256"
                }
            ],
            "name": "createCampaign",
            "outputs": [
                {
                    "internalType": "uint256",
                    "name": "",
                    "type": "uint256"
                }
            ],
            "stateMutability": "nonpayable",
            "type": "function"
        },
        {
            "inputs": [
                {
                    "internalType": "uint256",
                    "name": "_campaignId",
                    "type": "uint256"
                }
            ],
            "name": "getCampaign",
            "outputs": [
                {
                    "internalType": "address",
                    "name": "",
                    "type": "address"
                },
                {
                    "internalType": "uint256",
                    "name": "",
                    "type": "uint256"
                },
                {
                    "internalType": "uint256",
                    "name": "",
                    "type": "uint256"
                },
                {
                    "internalType": "uint256",
                    "name": "",
                    "type": "uint256"
                }
            ],
            "stateMutability": "view",
            "type": "function"
        },
        {
            "inputs": [
                {
                    "internalType": "uint256",
                    "name": "_campaignId",
                    "type": "uint256"
                },
                {
                    "internalType": "address",
                    "name": "_contributor",
                    "type": "address"
                }
            ],
            "name": "getContribution",
            "outputs": [
                {
                    "internalType": "uint256",
                    "name": "",
                    "type": "uint256"
                }
            ],
            "stateMutability": "view",
            "type": "function"
        },
        {
            "inputs": [
                {
                    "internalType": "uint256",
                    "name": "_campaignId",
                    "type": "uint256"
                }
            ],
            "name": "refund",
            "outputs": [],
            "stateMutability": "nonpayable",
            "type": "function"
        },
        {
            "inputs": [
                {
                    "internalType": "uint256",
                    "name": "_campaignId",
                    "type": "uint256"
                }
            ],
            "name": "withdrawFunds",
            "outputs": [],
            "stateMutability": "nonpayable",
            "type": "function"
        }
    ],
    "bytecode": "0x608060405234801561001057600080fd5b50611497806100206000396000f3fe6080604052600436106100865760003560e01c8063368e571b11610059578063368e571b1461015b5780635598f8cc146101845780637274e30d146101c4578063c1cbbca7146101ef578063e081dbf91461020b57610086565b8063141961bc1461008b578063155dd5ee146100cc57806322502268146100f5578063278ecde114610132575b600080fd5b34801561009757600080fd5b506100b260048036038101906100ad9190610cde565b610248565b6040516100c3959493929190610d76565b60405180910390f35b3480156100d857600080fd5b506100f360048036038101906100ee9190610cde565b6102ab565b005b34801561010157600080fd5b5061011c60048036038101906101179190610dc9565b61052a565b6040516101299190610e09565b60405180910390f35b34801561013e57600080fd5b5061015960048036038101906101549190610cde565b61060b565b005b34801561016757600080fd5b50610182600480360381019061017d9190610cde565b610809565b005b34801561019057600080fd5b506101ab60048036038101906101a69190610cde565b6109d7565b6040516101bb9493929190610e24565b60405180910390f35b3480156101d057600080fd5b506101d9610a5c565b6040516101e69190610e09565b60405180910390f35b61020960048036038101906102049190610cde565b610a62565b005b34801561021757600080fd5b50610232600480360381019061022d9190610e95565b610c45565b60405161023f9190610e09565b60405180910390f35b60016020528060005260406000206000915090508060000160009054906101000a900473ffffffffffffffffffffffffffffffffffffffff16908060010154908060020154908060030154908060040160009054906101000a900460ff16905085565b60006001600083815260200190815260200160002090508060000160009054906101000a900473ffffffffffffffffffffffffffffffffffffffff1673ffffffffffffffffffffffffffffffffffffffff163373ffffffffffffffffffffffffffffffffffffffff1614610354576040517f08c379a000000000000000000000000000000000000000000000000000000000815260040161034b90610f32565b60405180910390fd5b806002015442101561039b576040517f08c379a000000000000000000000000000000000000000000000000000000000815260040161039290610f9e565b60405180910390fd5b8060010154816003015410156103e6576040517f08c379a00000000000000000000000000000000000000000000000000000000081526004016103dd9061100a565b60405180910390fd5b8060040160009054906101000a900460ff1615610438576040517f08c379a000000000000000000000000000000000000000000000000000000000815260040161042f9061109c565b60405180910390fd5b60018160040160006101000a81548160ff0219169083151502179055508060000160009054906101000a900473ffffffffffffffffffffffffffffffffffffffff1673ffffffffffffffffffffffffffffffffffffffff166108fc82600301549081150290604051600060405180830381858888f193505050501580156104c3573d6000803e3d6000fd5b50817ff440aec6b52895984d061d622e6edeba6210f7c3e059be920663140c084560d78260000160009054906101000a900473ffffffffffffffffffffffffffffffffffffffff16836003015460405161051e9291906110bc565b60405180910390a25050565b6000600160008082825461053e9190611114565b92505081905550600060016000805481526020019081526020016000209050338160000160006101000a81548173ffffffffffffffffffffffffffffffffffffffff021916908373ffffffffffffffffffffffffffffffffffffffff16021790555083816001018190555082426105b59190611114565b81600201819055506000547f91b289a829e71d811b8c69e4a24ba2d40d115d8a236e9a724cb3bb2d43cf7223338684600201546040516105f793929190611148565b60405180910390a260005491505092915050565b60006001600083815260200190815260200160002090508060020154421015610669576040517f08c379a000000000000000000000000000000000000000000000000000000000815260040161066090610f9e565b60405180910390fd5b80600101548160030154106106b3576040517f08c379a00000000000000000000000000000000000000000000000000000000081526004016106aa906111cb565b60405180910390fd5b60008160050160003373ffffffffffffffffffffffffffffffffffffffff1673ffffffffffffffffffffffffffffffffffffffff1681526020019081526020016000205490506000811161073c576040517f08c379a000000000000000000000000000000000000000000000000000000000815260040161073390611237565b60405180910390fd5b60008260050160003373ffffffffffffffffffffffffffffffffffffffff1673ffffffffffffffffffffffffffffffffffffffff168152602001908152602001600020819055503373ffffffffffffffffffffffffffffffffffffffff166108fc829081150290604051600060405180830381858888f193505050501580156107c9573d6000803e3d6000fd5b50827f7a482fdeb6bc9a1376f597068a214a7a39472bb2eff1b8cad21ba04f49ddca1b33836040516107fc9291906110bc565b60405180910390a2505050565b600060016000838152602001908152602001600020905080600201544210610866576040517f08c379a000000000000000000000000000000000000000000000000000000000815260040161085d906112a3565b60405180910390fd5b60008160050160003373ffffffffffffffffffffffffffffffffffffffff1673ffffffffffffffffffffffffffffffffffffffff168152602001908152602001600020549050600081116108ef576040517f08c379a00000000000000000000000000000000000000000000000000000000081526004016108e69061130f565b60405180910390fd5b60008260050160003373ffffffffffffffffffffffffffffffffffffffff1673ffffffffffffffffffffffffffffffffffffffff168152602001908152602001600020819055508082600301600082825461094a919061132f565b925050819055503373ffffffffffffffffffffffffffffffffffffffff166108fc829081150290604051600060405180830381858888f19350505050158015610997573d6000803e3d6000fd5b50827f86e612bcc246b16933bb0c60af3ca43d72f79c079a035272a9405ef85882614233836040516109ca9291906110bc565b60405180910390a2505050565b6000806000806000600160008781526020019081526020016000209050600081600201544210610a08576000610a19565b428260020154610a18919061132f565b5b90508160000160009054906101000a900473ffffffffffffffffffffffffffffffffffffffff168183600101548460030154955095509550955050509193509193565b60005481565b600060016000838152602001908152602001600020905080600201544210610abf576040517f08c379a0000000000000000000000000000000000000000000000000000000008152600401610ab6906112a3565b60405180910390fd5b8060000160009054906101000a900473ffffffffffffffffffffffffffffffffffffffff1673ffffffffffffffffffffffffffffffffffffffff163373ffffffffffffffffffffffffffffffffffffffff1603610b51576040517f08c379a0000000000000000000000000000000000000000000000000000000008152600401610b48906113af565b60405180910390fd5b60003411610b94576040517f08c379a0000000000000000000000000000000000000000000000000000000008152600401610b8b90611441565b60405180910390fd5b348160050160003373ffffffffffffffffffffffffffffffffffffffff1673ffffffffffffffffffffffffffffffffffffffff1681526020019081526020016000206000828254610be59190611114565b9250508190555034816003016000828254610c009190611114565b92505081905550817f0a4a91237423e0a1766a761c7cb029311d8b95d6b1b81db1b949a70c98b4e08e3334604051610c399291906110bc565b60405180910390a25050565b60006001600084815260200190815260200160002060050160008373ffffffffffffffffffffffffffffffffffffffff1673ffffffffffffffffffffffffffffffffffffffff16815260200190815260200160002054905092915050565b600080fd5b6000819050919050565b610cbb81610ca8565b8114610cc657600080fd5b50565b600081359050610cd881610cb2565b92915050565b600060208284031215610cf457610cf3610ca3565b5b6000610d0284828501610cc9565b91505092915050565b600073ffffffffffffffffffffffffffffffffffffffff82169050919050565b6000610d3682610d0b565b9050919050565b610d4681610d2b565b82525050565b610d5581610ca8565b82525050565b60008115159050919050565b610d7081610d5b565b82525050565b600060a082019050610d8b6000830188610d3d565b610d986020830187610d4c565b610da56040830186610d4c565b610db26060830185610d4c565b610dbf6080830184610d67565b9695505050505050565b60008060408385031215610de057610ddf610ca3565b5b6000610dee85828601610cc9565b9250506020610dff85828601610cc9565b9150509250929050565b6000602082019050610e1e6000830184610d4c565b92915050565b6000608082019050610e396000830187610d3d565b610e466020830186610d4c565b610e536040830185610d4c565b610e606060830184610d4c565b95945050505050565b610e7281610d2b565b8114610e7d57600080fd5b50565b600081359050610e8f81610e69565b92915050565b60008060408385031215610eac57610eab610ca3565b5b6000610eba85828601610cc9565b9250506020610ecb85828601610e80565b9150509250929050565b600082825260208201905092915050565b7f4f6e6c792063726561746f722063616e20776974686472617700000000000000600082015250565b6000610f1c601983610ed5565b9150610f2782610ee6565b602082019050919050565b60006020820190508181036000830152610f4b81610f0f565b9050919050565b7f43616d706169676e206973207374696c6c206f6e676f696e6700000000000000600082015250565b6000610f88601983610ed5565b9150610f9382610f52565b602082019050919050565b60006020820190508181036000830152610fb781610f7b565b9050919050565b7f43616d706169676e20646964206e6f742072656163682069747320676f616c00600082015250565b6000610ff4601f83610ed5565b9150610fff82610fbe565b602082019050919050565b6000602082019050818103600083015261102381610fe7565b9050919050565b7f46756e6473206861766520616c7265616479206265656e20776974686472617760008201527f6e00000000000000000000000000000000000000000000000000000000000000602082015250565b6000611086602183610ed5565b91506110918261102a565b604082019050919050565b600060208201905081810360008301526110b581611079565b9050919050565b60006040820190506110d16000830185610d3d565b6110de6020830184610d4c565b9392505050565b7f4e487b7100000000000000000000000000000000000000000000000000000000600052601160045260246000fd5b600061111f82610ca8565b915061112a83610ca8565b9250828201905080821115611142576111416110e5565b5b92915050565b600060608201905061115d6000830186610d3d565b61116a6020830185610d4c565b6111776040830184610d4c565b949350505050565b7f43616d706169676e20776173207375636365737366756c000000000000000000600082015250565b60006111b5601783610ed5565b91506111c08261117f565b602082019050919050565b600060208201905081810360008301526111e4816111a8565b9050919050565b7f4e6f20636f6e747269627574696f6e20746f20726566756e6400000000000000600082015250565b6000611221601983610ed5565b915061122c826111eb565b602082019050919050565b6000602082019050818103600083015261125081611214565b9050919050565b7f43616d706169676e2068617320656e6465640000000000000000000000000000600082015250565b600061128d601283610ed5565b915061129882611257565b602082019050919050565b600060208201905081810360008301526112bc81611280565b9050919050565b7f4e6f20636f6e747269627574696f6e20746f2063616e63656c00000000000000600082015250565b60006112f9601983610ed5565b9150611304826112c3565b602082019050919050565b60006020820190508181036000830152611328816112ec565b9050919050565b600061133a82610ca8565b915061134583610ca8565b925082820390508181111561135d5761135c6110e5565b5b92915050565b7f43726561746f722063616e6e6f7420636f6e7472696275746500000000000000600082015250565b6000611399601983610ed5565b91506113a482611363565b602082019050919050565b600060208201905081810360008301526113c88161138c565b9050919050565b7f436f6e747269627574696f6e206d75737420626520677265617465722074686160008201527f6e207a65726f0000000000000000000000000000000000000000000000000000602082015250565b600061142b602683610ed5565b9150611436826113cf565b604082019050919050565b6000602082019050818103600083015261145a8161141e565b905091905056fea2646970667358221220ef4e538aeae43fbff9ef06691d67b610acee8e2a1de4ffef2efc71726ee20b5a64736f6c63430008180033",
    "linkReferences": {},
    "deployedLinkReferences": {}
}